:10000000901D00205DE40000DDE10000455000008F
:100010006BE400006BE400006BE400006BE40000A4
:100020000000000000000000000000006BE4000081
:100030006BE40000000000008F4F00007D0D010008
:100040008FC00000BFBF00004BC1000095C1000081
:100050005DCC00008FC00000BFBF00004BC100009E
:1000600095C100000000000000000000000000003A
:100070000000000000000000000000000000000080
:100080000000000000000000000000000000000070
:100090000000000000000000000000000000000060
:1000A0000000000000000000000000000000000050
:1000B0000000000000000000000000000000000040
:1000C0000000000000000000000000000000000030
:1000D0000000000000000000000000000000000020
:1000E0000000000000000000000000000000000010
:1000F0000000000000000000000000000000000000
:1001000000000000000000000000000000000000EF
:1001100000000000000000000000000000000000DF
:1001200000000000000000000000000000000000CF
:1001300000000000000000000000000000000000BF
:1001400000000000000000000000000000000000AF
:10015000000000000000000000000000000000009F
:10016000000000000000000000000000000000008F
:10017000000000000000000000000000000000007F
:10018000000000000000000000000000000000006F
:10019000000000000000000000000000000000005F
:1001A000000000000000000000000000000000004F
:1001B000000000000000000000000000000000003F
:1001C000FFFFFFFFFFFFFFFFFFFFFFFFFFFFFFFF3F
:1001D000FFFFFFFFFFFFFFFFFFFFFFFFFFFFFFFF2F
:1001E000FFFFFFFFFFFFFFFFFFFFFFFFFFFFFFFF1F
:1001F000FFFFFFFFFFFFFFFFFFFFFFFFFFFFFFFF0F
:1002000010B5054C237833B9044B13B1044800E012
:1002100000BF0123237010BD8807002000000000EC
:10022000CCFE010008B5034B1BB10349034800E0B5
:1002300000BF08BD000000008C070020CCFE0100BC
:1002400080B582B000AF00237B600D4800F0ADFDAB
:1002500003460C4A13600B4B1B68002B06D1084960
:10026000094802F0ADFB01237B6003E00449074825
:1002700002F0A6FB7B6818460837BD4680BD00BF6C
:10028000CC830100A4070020D48301000484010072
:1002900080B582B000AF0023FB800023BB80002329
:1002A0003B6047E0704B1B680021184609F052FC88
:1002B00003466E4A13606C4B1B680121184609F017
:1002C00049FC0346694A1360386804F053F8664BEA
:1002D0001B680021184609F01FFC03469AB2FB88F0
:1002E00013449BB2FB80386804F044F85E4B1B68F3
:1002F0000121184609F010FC03469AB2BB8813444A
:100300009BB2BB80584B1B680021184609F04CFC7F
:100310000346564A1360544B1B680121184609F0E6
:1003200043FC0346514A1360322004F023F83B6833
:1003300001333B604E4B1B781A463B689342B1DB5E
:10034000B7F906304A4A127893FBF2F3FB80B7F90B
:100350000430474A127893FBF2F3BB80B7F90630BA
:10036000184617F00BFA3EA3D3E9002317F070FAF2
:1003700002460B461046194617F01AFD0346FB804D
:10038000B7F906303B4A82FB03125211DB17D31A2E
:100390001BB2DBB2163BDAB2374B1A70B7F9063034
:1003A000344A82FB03125111DA178A1A642101FBC5
:1003B00002F29B1A1BB2DAB22F4B5A702E4B1B78EB
:1003C00019462D4B5B781A462C4802F0F9FAB7F91A
:1003D00004304FF4A57202FB03F3002B01DA03F69D
:1003E000FF731B13BB80B7F90430224A82FB031250
:1003F0005211DB17D31A1BB2DAB21F4B9A70B7F93E
:1004000004301C4A82FB03125111DA178A1A642144
:1004100001FB02F29B1A1BB2DAB2174BDA70164BD1
:100420009B781946144BDB781A46154802F0C8FA37
:10043000B7F906300F4A82FB03125211DB17D31AA9
:100440001BB2DBB2163BDAB20E4B1A70BB88DAB2C3
:100450000C4B5A700B4B18460837BD4680BD00BF89
:1004600000000000001D2040A4070020A807002075
:10047000000000201F85EB51AC0700202C840100F8
:1004800048840100B007002080B500AF074802F0A3
:1004900097FA074B1B78074A12781146184600F066
:1004A0000DFA4FF4FA7003F065FFF2E7648401007F
:1004B000B2070020B307002080B582B000AF002350
:1004C0007B6000237B80244800F06FFC0346234AB6
:1004D0001360224B1B68002B06D11F49204802F0F5
:1004E0006FFA00237B6003E01B491E4802F068FAA4
:1004F0001D4800F05AFC03461C4A13601B4B1B6846
:10050000002B06D11849164802F05AFA00237B60E6
:1005100003E01549134802F053FA104B18687B8822
:10052000134A002109F022FF104B18687B88104AFB
:10053000002109F01BFF094B1B680021184609F038
:10054000BBFE0A4B1B680021184609F0B5FE7B680C
:1005500018460837BD4680BD78840100B4070020E6
:1005600080840100B0840100D8840100B807002015
:1005700020A10700FFFFFFFF90B583B000AF034647
:100580000A46FB711346BB71FB79092B02D90A237A
:10059000FB7104E0FB79002B01D10023FB71BB79D7
:1005A000092B02D90A23BB7104E0BB79052B01D8C2
:1005B0000023BB71FB79002B11D1BB79002B0ED12D
:1005C0002B4B186800232B4A002109F0CFFE2A4B41
:1005D00018680023274A002109F0C8FE37E0244BA1
:1005E0001C68FB79184617F0C9F81BA3D3E9002350
:1005F00017F02EF902460B461046194617F000FC7C
:1006000003461C4A0021204609F0B0FE1A4B1C6824
:10061000BB79184617F0B2F811A3D3E9002317F0FD
:1006200017F902460B46104619460FA3D3E90023DB
:1006300016F058FF02460B461046194617F0E0FB2D
:1006400003460C4A0021204609F090FE00BF00BF7F
:100650000C37BD4690BD00BF00000000006AE840B6
:1006600000000000004CCD4000000000C05C1541BF
:10067000B407002020A10700B807002080B582B091
:1006800000AF786039603B68002B02D0034801F06E
:100690006BF8002318460837BD4680BDBC07002014
:1006A00080B582B000AF09E0002201210B4801F0C3
:1006B000B9F84FF0FF31094800F08EFF084B186879
:1006C000FA1D0123002100F04FFC0346002BEBD064
:1006D000FB7918460837BD4680BD00BFBC07002027
:1006E000DC07002080B588B000AFFFF7D9FF0346D4
:1006F000FB75FB7D0D2B40F0B180634B1B785A1CC2
:10070000D1B2614A117007F120021344002203F8AC
:10071000202C5E4802F054F90023FB610AE03A46BF
:10072000FB6913441B781946594802F049F9FB69E3
:100730000133FB61FB690A2BF1DD564802F040F9F9
:10074000012003F017FE3B785A2B67D1BB7AA52B0B
:1007500064D13B79002B03D14F4802F031F963E0BB
:100760003B79012B15D14D4802F02AF97B791946C6
:100770004FF4837009F09AFCBB78FA78114618465A
:10078000FFF7FAFE7B78194640F2034009F08EFC31
:100790004AE03B79022B47D1414802F011F9FFF7BB
:1007A00077FD386110F004F9F8603B691B781A4650
:1007B00013469B0013445B003A4A82FB03121A441F
:1007C0005211DB17D31A3A6901321278C2F5A572B9
:1007D00002FB03F3344A82FB0312D211DB17D31A54
:1007E000DBB2BB703B691B78304A82FB0312DB171C
:1007F000D31AFA681278C2F1650202FB03F32C4A9D
:1008000082FB03125210DB17D31ADBB2FB70BB78EA
:10081000FA7811461846FFF7AFFE05E03B46194649
:10082000244802F0CDF800E000BF234B18683A4698
:100830000C23002100F0DCFB0023BB6107E03A46FB
:10084000BB69134400221A70BB690133BB61BB69E9
:100850000B2BF4D90C4B00221A7013E00A4B1B78B7
:100860000B2B28BF0B23DAB2074B1A70064B1B78F1
:100870005A1CD1B2044A117007F120021344FA7DC8
:1008800003F8202C31E700BFE0070020E0840100DE
:10089000EC840100F0840100F48401000085010073
:1008A0000C850100EBA00EEA35064C6356555555F4
:1008B000676666661C850100DC07002090B5A3B062
:1008C00002AF03460A46FB711346BB71464B07F164
:1008D0000C040FCB07C4237007F119032022002159
:1008E000184613F003F8FFF7D3FCF86740F2034013
:1008F00009F0FCFB0346DBB287F870304FF48370DD
:1009000009F0F4FB0346DBB287F8713010F050F8C1
:10091000B8670FF0A9FA7867FB7987F86C30BB7974
:1009200087F86D30FB6F1B781946FB6F01331B781E
:1009300007F10C0207F13C0000930B462B4901F034
:10094000E7FF97F87030194697F8713007F13C02CD
:1009500007F13C0000930B46244901F0D9FFBB6F1F
:100960001B781946BB6F01331B7807F13C0207F176
:100970003C0000930B461D4901F0CAFF7B6F1B78BA
:1009800019467B6F01331B7807F13C0207F13C00ED
:1009900000930B46154901F0BBFF97F86C301946E0
:1009A00097F86D3007F13C0207F13C0000930B46CD
:1009B0000E4901F0ADFF07F13C0207F13C000C4B82
:1009C0000C4901F0A5FF0C4B186807F13C022D23E0
:1009D000002100F00DFB4FF4FA7003F0CBFC00BFD8
:1009E0008437BD4690BD00BF80850100648501004D
:1009F0007085010078850100DC070020B0B58EB05D
:100A000002AF786039600023FB62344B07F10C04BD
:100A10001D460FCD0FC42B681A46228002341B0CD2
:100A200023707B68022B09D13B680433196807F1F6
:100A300020030822184601F02CFB06E007F12003F2
:100A400008222749184601F024FB07F12003184625
:100A500000F0ABF90346234A1360224B1B68002BBE
:100A600007D107F1200319461F4801F0A9FF012310
:100A700030E0002300221D491D4800F013FD194BF2
:100A80001B684FF48071184600F09CF9154B1B68E9
:100A90001849184600F024FB124B186807F10C02A5
:100AA0001223002100F0A4FA0A23019319230093D2
:100AB0004FF4806300221049104803F07BFBB862BA
:100AC000BB6A002B03D0B86A03F0D2FA01E001231D
:100AD000FB62FB6A18463037BD46B0BDDC850100BD
:100AE000B0850100DC070020B8850100CC8501003D
:100AF000BC0700207D060000E5060000D48501004B
:100B000080B400AF034B1B681846BD465DF8047BFC
:100B1000704700BFE407002080B582B000AF1B4BD8
:100B20001B68002B02D0194B1B68984704F018FA79
:100B30007860174B1B680133154A136003F08CFA79
:100B400038603B689B6C5A1E3B689A643B689B6CA0
:100B5000002B12D13B685A6C3B689A643B6893F84F
:100B6000343043F00803DAB23B6883F83420786805
:100B700004F0FAF902F07CFF02E0786804F0F4F97E
:100B800004F060F800BF0837BD4680BDE8070020CC
:100B9000E407002080B485B000AF78607B68002B4C
:100BA00003DA4FF0FF33FB6027E07B68164A82FBD5
:100BB00003129211DB17D31A4FF47A7202FB03F37C
:100BC000FB607A68104B83FB02139911D317CB1A81
:100BD0004FF47A7101FB03F3D31A4FF47A7202FBDC
:100BE00003F303F2E733084A82FB03129211DB1787
:100BF000D31A1A46FB681344FB60FB681846143787
:100C0000BD465DF8047B7047D34D621080B400AFE1
:100C100000231846BD465DF8047B704780B400AFE2
:100C200000231846BD465DF8047B704780B400AFD2
:100C300000231846BD465DF8047B704780B400AFC2
:100C400000231846BD465DF8047B704780B582B02E
:100C500000AF094B7B6005E07B681B6898477B68A9
:100C600004337B607B68054A9342F5D300BF00BF25
:100C70000837BD4680BD00BF98830100A8830100EE
:100C800080B582B000AF094B7B6005E07B681B68D4
:100C900098477B6804337B607B68054A9342F5D3B1
:100CA00000BF00BF0837BD4680BD00BFA88301005C
:100CB000C883010080B500AF00F036F80023184665
:100CC00080BD80B582B000AF7860FFF7D9FF0AF031
:100CD00071FE00BF0837BD4680BDFFFF80B584B000
:100CE00002AF142301930A2300934FF40063002200
:100CF00009490A4803F05EFA78607B68002B04D14A
:100D0000D5220749074801F0B3FF786803F0B0F92E
:100D100000BF0837BD4680BDC30C0000F085010050
:100D200008860100F885010080B500AF04F018F9CD
:100D300010F070F801F01CFA04F0C4F802F060FE44
:100D4000FFF7CCFF04F0D8F800F0A0FA02F074FE30
:100D50000023184680BD80B584B000AFF860B9604C
:100D60001346FB80FB68002B02D14FF0FF3318E0E5
:100D7000B86800F01AF80346002B02D04FF0FF339A
:100D80000FE0FB68BA680921184602F0ABFBFB686C
:100D9000FA88DA82FB6800229A76FB6800221A83BE
:100DA000002318461037BD4680BD80B582B000AF25
:100DB00078600921786802F00BFD03461846083771
:100DC000BD4680BD80B584B000AF78600B467B80A7
:100DD0000023FB607B68002B04D1D02237493848C0
:100DE00001F046FF7B68184602F0D8FC0346092B49
:100DF00004D0D1223149334801F03AFF7B68DB8AC5
:100E000003F01003002B14D17B685B6A002B09D020
:100E10007B685B6A78689847F860FB68002B01D0B4
:100E2000FB6847E07B68DB8A43F010039AB27B687B
:100E3000DA827B68DB8A03F00803002B08D07B682A
:100E40001B8B03F00803002B02D06FF0060331E088
:100E50007B689B6A002B07D07B689B6A7A88114667
:100E600078689847F86007E07B8823F0F0031B055B
:100E70001B0D9AB27B681A83FB68002B03D0FB68BA
:100E800013F1060F15D17B681B8B43F008039AB250
:100E90007B681A837B689B7E0133DAB27B689A7623
:100EA0007B689B7E002B04D1FF220449064801F099
:100EB000DFFEFB6818461037BD4680BDD8860100AE
:100EC0001C8601002C860100C486010080B584B018
:100ED00000AF78600023FB607B68002B05D14FF4E6
:100EE00089721E491E4801F0C3FE7B68184602F055
:100EF00055FC0346092B05D040F213121749194837
:100F000001F0B6FE7B689B7E002B02D14FF0FF33D1
:100F10001FE07B689B7E013BDAB27B689A767B6838
:100F20009B7E002B01D0002313E07B68DB6A002B43
:100F300004D07B68DB6A78689847F860FB68002B10
:100F400003D0FB6813F1060F02D17B6800221A83DD
:100F5000FB6818461037BD4680BD00BFE88601001B
:100F60001C8601002C86010090B585B000AFF860AA
:100F7000B9607A603B60FB68002B05D14FF4A0722A
:100F80001849194801F074FEFB68184602F006FC87
:100F90000346092B05D040F241121249134801F0D3
:100FA00067FEFB689B7E002B05D14FF0FF3000F001
:100FB00031FF002311E0FB681B6B002B08D0FB689E
:100FC0001C6B3B687A68B968F868A047034604E080
:100FD0006FF0050000F01EFF002318461437BD46D1
:100FE00090BD00BFF88601001C8601002C86010020
:100FF00090B585B000AFF860B9607A603B60FB687F
:10100000002B05D140F26B121849194801F030FE4F
:10101000FB68184602F0C2FB0346092B05D04FF4CB
:10102000B6721249134801F023FEFB689B7E002B29
:1010300005D14FF0FF3000F0EDFE002311E0FB681A
:101040005B6B002B08D0FB685C6B3B687A68B96807
:10105000F868A047034604E06FF0050000F0DAFEF0
:10106000002318461437BD4690BD00BF0887010015
:101070001C8601002C86010080B584B000AFF860AA
:10108000B9607A60FB68002B05D140F28F121149DC
:10109000114801F0EDFDFB68184602F07FFB0346A6
:1010A000092B05D04FF4C8720A490C4801F0E0FD45
:1010B000FB689B6B002B07D0FB689B6B7A68B96859
:1010C000F8689847034601E06FF0050318461037AB
:1010D000BD4680BD188701001C8601002C860100DA
:1010E00080B582B000AF786039607B68002B05D195
:1010F00040F2AB120C490D4801F0BAFD7B6818466E
:1011000002F04CFB0346092B05D04FF4D67206497A
:10111000074801F0ADFD7B683A68DA6100231846A4
:101120000837BD4680BD00BF2C8701001C8601002A
:101130002C86010080B483B000AF786039607B6892
:101140001B683A685A607B681A683B681A607B685B
:101150003A681A603B687A685A6000BF0C37BD462F
:101160005DF8047B704780B483B000AF78607B6823
:101170001B687A6852685A607B685B687A68126894
:101180001A607B687A685A607B685A687B681A6064
:1011900000BF0C37BD465DF8047B704780B582B058
:1011A00000AF78607B68143319460348FFF7C2FF2D
:1011B00000BF0837BD4680BD0400002090B583B055
:1011C00000AF00237B600D4B3B603B681B683A68B7
:1011D0009A420ED03B681B68143B7B6003F0C0FE54
:1011E00004467B6814331846FFF7BDFF204603F022
:1011F000BBFE7B6818460C37BD4690BD040000203E
:1012000080B582B000AFFFF7D9FF78607B68002B14
:101210001BD07B689B6F3B603B68002B02D03B6818
:1012200078689847786802F09BFA0346012B03D14F
:10123000786802F0BDF9E6E77B689B6A184601F022
:10124000E5FC786802F04EFADDE700BF00BF083722
:10125000BD4680BD80B584B000AF78600023FB60E0
:101260000CE0094AFB6852F82330BB60BB68002BD6
:1012700001D0BB689847FB680133FB60FB68032B18
:10128000EFD9FFF7BDFFE9E76C09002080B588B012
:1012900004AF0023FB6024E03B1DFA6815491846A3
:1012A00001F036FBFB68DB01134A9818FB681B0250
:1012B000124A1344391D202203921F2202924FF436
:1012C00080720192009300230D4A02F08DFEFB68AC
:1012D000DB01094A1344184602F0CAFEFB680133D9
:1012E000FB60FB68002BD7D000BF00BF1037BD46A6
:1012F00080BD00BF48870100EC0700206C0800207B
:101300005512000080B483B000AF78607B687A68C3
:101310005A607B685A687B681A6000BF0C37BD460C
:101320005DF8047B704780B483B000AF78603960AB
:101330007B685B683A681A607B685A683B685A60E9
:101340007B683A685A603B687A681A6000BF0C375D
:10135000BD465DF8047B704780B483B000AF786011
:101360007B681B687A689A420CBF01230023DBB2BA
:1013700018460C37BD465DF8047B704780B582B0D7
:1013800000AF78607B6814331846FFF7BBFF00237B
:1013900018460837BD4680BD80B586B000AFF860FE
:1013A000B9601346FB71B86803F072F8FB79002B43
:1013B00002D0012B07D031E0BB6814331946F8681E
:1013C000FFF7B1FF31E0FB681B687B6117E07B69C9
:1013D000143B3B61BB6893F835203B6993F835308B
:1013E0009A4209D23B6903F11402BB6814331946CF
:1013F0001046FFF798FF06E07B691B687B617A69FE
:10140000FB689A42E3D17A69FB689A420CD1BB68C7
:1014100014331946F868FFF786FF05E0A322054953
:10142000054801F025FC00E000BF002318461837EE
:10143000BD4680BD588C01005087010080B584B046
:1014400000AF78607B681B68143BFB60F86803F0B2
:1014500083F8002318461037BD4680BD90B585B08F
:1014600000AF786012E003F07BFD03461C467B680A
:101470001B68143BFB60FB684FF0FF321A63F8688F
:1014800003F06AF82346184603F06EFD7868FFF70C
:1014900063FF0346002BE6D0002318461437BD46F1
:1014A00090BDFFFF80B584B000AFF860B9607A608E
:1014B000FB70FB68002B05D14FF496721749184852
:1014C00001F0D6FB7B68B3F5803F05D340F22D12C7
:1014D0001249144801F0CCFBFB78002B08D0FB78B4
:1014E000012B05D04FF497720C490F4801F0C0FB57
:1014F000FB68BA680221184601F0F4FFFB68184641
:10150000FFF73CFF7B689AB2FB689A83FB68FA7826
:101510005A72002318461037BD4680BD308C01003A
:1015200054870100648701007887010080B586B088
:1015300000AFF860B9601346FB71BB68B3F5803F3C
:1015400005D340F289121F491F4801F091FBFB7936
:10155000002B08D0FB79012B05D04FF4C572194937
:101560001A4801F085FB03F0FBFC786100F03EFCBB
:101570000346002B09D01349154801F021FA4FF416
:10158000C6721049134801F073FB786903F0ECFC54
:10159000F968022002F03AF838613B69002B01D16A
:1015A0003B690BE03B691846FFF7E8FEBB689AB25F
:1015B0003B699A833B69FA795A723B691846183736
:1015C000BD4680BD3C8C0100648701007887010026
:1015D0002C8801005087010090B587B000AF78607B
:1015E00039607B68002B05D140F2E5125549564819
:1015F00001F03EFB7B68184602F0D0F80346022B50
:1016000005D04FF4F3724F49504801F031FB504B75
:101610001B68002B04D04E4B1B687A681046984715
:1016200003F09EFC04467B689B8B002B09D07B68F3
:101630009B8B013B9AB27B689A83204603F094FC13
:1016400071E03B68002B05D1204603F08DFC6FF064
:10165000010372E003F084FC786102F0A5FB03460D
:10166000002B09D037493B4801F0AAF940F2062285
:101670003449394801F0FCFA03F072FC386102F099
:10168000EBFC0346002B09D12E49344801F098F9B0
:1016900040F206222B49304801F0EAFA03F060FCE0
:1016A000F86000F0A3FB0346002B09D025492C4825
:1016B00001F086F940F206222249274801F0D8FAC3
:1016C000F86803F051FC386903F04EFC786903F0C8
:1016D0004BFC02F0C1FCB860BB6800221A637B6857
:1016E00003F114007B685B7A1A46B968FFF754FE71
:1016F0003B68002B0BDDBB684C333A460021184693
:1017000003F024FABB684C33184603F0C3F82046B4
:1017100003F02AFC02F0ACF9BB681B6B002B02D073
:10172000BB681B6B09E00F4B1B68002B04D00D4BF3
:101730001B687A6810469847002318461C37BD4638
:1017400090BD00BF4C8C010054870100B48701009C
:101750004C0A00209088010050870100BC880100DD
:101760002C880100500A0020B0B582B000AF78602C
:101770007B68002B05D140F25F222649264801F004
:1017800077FA7B68184602F009F80346022B05D069
:101790004FF418721F49214801F06AFA204B1B6868
:1017A000002B04D01E4B1B687A6810469847002512
:1017B00003F0D6FB04467B6814331846FFF7CCFDD4
:1017C0000346002B06D17B6814331846FFF736FE1C
:1017D000012512E07B689B8B4FF6FF72934206D087
:1017E0007B689B8B01339AB27B689A8305E0204625
:1017F00003F0BAFB6FF0020307E0204603F0B4FBEE
:10180000012D01D102F034F9002318460837BD46F6
:10181000B0BD00BF6C8C010054870100B48701008B
:10182000540A002080B586B000AFF860B9607A60D5
:10183000FB68002B05D14FF428721849184801F0B5
:1018400017FAFB68184601F0A9FF0346022B05D0E2
:1018500040F2A1221149134801F00AFABB68012B9A
:1018600016D17B687B6103F07BFB03463B61FB6821
:1018700014331846FFF7F2FD7B699AB2FB689A832E
:101880003B69184603F070FB02F0F2F8002301E018
:101890004FF0FF3318461837BD4680BD7C8C0100E1
:1018A00054870100B487010080B584B000AFF860B0
:1018B000B9601346FB71FB68002B05D140F2E622AC
:1018C0001049114801F0D4F9FB68BA6803211846A1
:1018D00001F008FEFB681846FFF750FDFB68012287
:1018E0009A83FB6800221A62FB68FF229A77FB68E2
:1018F0000022DA77FB6801225A720023184610375B
:10190000BD4680BD8C8C0100F488010080B584B098
:1019100000AF78600B46FB7003F022FBF86000F02C
:1019200065FA0346002B09D01749184801F048F81A
:101930004FF44E721449164801F09AF9F86803F012
:1019400013FB7968032001F061FEB860BB68002BCF
:1019500001D1BB6813E0BB681846FFF70FFDBB68F9
:1019600001229A83BB6800221A62BB68FF229A7721
:10197000BB680022DA77BB6801225A72BB6818463E
:101980001037BD4680BD00BF9C8C01002C88010033
:101990005087010090B587B000AF7860396003F0E0
:1019A000DFFA786102F000FA0346002B09D077498C
:1019B000774801F005F84FF465727449754801F0F5
:1019C00057F903F0CDFA386102F046FB0346002BCD
:1019D00009D16E49704800F0F3FF4FF465726B490E
:1019E0006C4801F045F903F0BBFAF86000F0FEF92D
:1019F0000346002B09D06549684800F0E1FF4FF429
:101A000065726249634801F033F9F86803F0ACFA93
:101A1000386903F0A9FA786903F0A6FA7B68002B0D
:101A200005D140F2973259495D4801F021F97B68B0
:101A3000184601F0B3FE0346032B05D04FF466723F
:101A40005249584801F014F902F006FBB86003F05F
:101A500087FA0446544B1B68002B04D0524B1B687A
:101A60007A6810469847BB6800221A637B681B6A35
:101A7000BA689A4210D17B68DB7FFF2B06D07B6867
:101A8000DB7F0133DAB27B68DA776DE0204603F062
:101A90006BFA6FF0020374E07B689B8B002B1ED007
:101AA0007B689B8B013B9AB27B689A837B68BA68A0
:101AB0001A62BB6893F835207B689A777B68DB7F76
:101AC000FF2B06D07B68DB7F0133DAB27B68DA77E5
:101AD0004AE0204603F048FA6FF0020351E03B6809
:101AE000002B09D1BB686FF001021A63204603F096
:101AF0003BFA6FF0010344E0BB6893F835207B6844
:101B00001B6A93F835309A4207D27B68186ABB6823
:101B100035331A46022102F03DFC7B6803F11400C4
:101B20007B685B7A1A46B968FFF736FC3B68002B86
:101B30000BDDBB684C333A460021184603F006F82B
:101B4000BB684C33184602F0A5FE204603F00CFAA1
:101B500001F08EFFBB681B6B002B02D0BB681B6BB8
:101B60000FE003F0FDF90446204603F0FDF90F4BAA
:101B70001B68002B04D00D4B1B687A6810469847F1
:101B8000002318461C37BD4690BD00BFAC8C010039
:101B90009088010050870100BC8801002C8801005A
:101BA000F4880100088901004C0A0020500A002036
:101BB00090B587B000AF78607B68002B05D140F20C
:101BC00044426349634801F053F87B68184601F0CA
:101BD000E5FD0346032B05D040F245425C495E48D3
:101BE00001F046F800237B6103F0BAF9386102F096
:101BF00033FA0346002B09D15549584800F0E0FE5E
:101C000040F24A425249564801F032F803F0A8F92E
:101C1000F86000F0EBF80346002B09D04C4951481E
:101C200000F0CEFE40F24A4249494D4801F020F80A
:101C3000F86803F099F9386903F096F902F00CFAA4
:101C4000B86003F08DF90446474B1B68002B04D0A5
:101C5000454B1B687A68104698477B681B6ABA68D0
:101C60009A4209D0BB684FF0FF321A63204603F056
:101C70007BF94FF0FF3367E07B68DB7F013BDAB233
:101C80007B68DA777B68DB7F002B54D17B689A7F97
:101C90007B681B6A93F835309A4207D07B68186AD4
:101CA0007B681E331A46022102F074FB7B681433F2
:101CB0001846FFF751FB0346002B23D17B685B6975
:101CC000143BBB607B68BA681A62BB6893F8352026
:101CD0007B689A777B68DB7FFF2B0DD07B68DB7F8F
:101CE0000133DAB27B68DA777B6814331846FFF782
:101CF000A5FB01237B611EE0204603F035F96FF060
:101D0000020321E07B689B8B4FF6FF7293420CD05D
:101D10007B689B8B01339AB27B689A837B68002235
:101D20001A627B68FF229A7705E0204603F01CF9CF
:101D30006FF0020308E0204603F016F97B69012BDF
:101D400001D101F095FE002318461C37BD4690BD19
:101D5000BC8C0100F488010008890100BC880100E6
:101D6000508701002C880100540A002080B582B001
:101D700000AF03F0F5F878600A4B1B78DBB2013353
:101D8000DAB2084B1A70084B1B68002B02D0064BC6
:101D90001B689847786803F0E7F800BF0837BD462E
:101DA00080BD00BF840900207C09002080B582B07E
:101DB00000AF03F0D5F878600A4B1B68002B02D007
:101DC000084B1B689847084B1B78DBB2013BDAB223
:101DD000054B1A70786803F0C7F800BF0837BD4696
:101DE00080BD00BF800900208409002080B582B03A
:101DF00000AF03F0B5F87860054B1B78FB7078688E
:101E000003F0B2F8FB7818460837BD4680BD00BF26
:101E10008409002080B584B000AF7860FFF7E6FF4A
:101E20000346002B03D00A4A7B6813600CE002F0E3
:101E300013F9F860FB68002B03D1054A7B68136037
:101E400002E0FB687A681A631037BD4680BD00BFA8
:101E50008809002080B582B000AFFFF7C7FF0346B6
:101E6000002B01D0074B09E002F0F6F878607B68A0
:101E7000002B02D07B68303300E0024B1846083755
:101E8000BD4680BD8809002080B489B000AFF860ED
:101E9000B9607A60FB68FB61BB68DBB27B617B6821
:101EA000032B40D9FB6803F00303002B3BD1FB68F5
:101EB000BB617B691B027A6913433B613B691B046D
:101EC0003A6913433B6116E0BB691A1DBA613A696E
:101ED0001A60BB691A1DBA613A691A60BB691A1D9A
:101EE000BA613A691A60BB691A1DBA613A691A6027
:101EF0007B68103B7B607B680F2BE5D807E0BB69F4
:101F00001A1DBA613A691A607B68043B7B607B6882
:101F1000032BF4D8BB69FB6105E0FB695A1CFA612D
:101F20007A69D2B21A707B685A1E7A60002BF4D19B
:101F3000FB6818462437BD465DF8047B704780B4C3
:101F40008BB000AFF860B9607A60FB687B62BB68F9
:101F50003B627B687B617B690F2B4DD93A6A7B6A58
:101F6000134303F00303002B46D17B6AFB613B6AFA
:101F7000BB6122E0BA69131DBB61FB69191DF961E0
:101F800012681A60BA69131DBB61FB69191DF961FA
:101F900012681A60BA69131DBB61FB69191DF961EA
:101FA00012681A60BA69131DBB61FB69191DF961DA
:101FB00012681A607B69103B7B617B690F2BD9D853
:101FC0000AE0BA69131DBB61FB69191DF96112684A
:101FD0001A607B69043B7B617B69032BF1D8FB6949
:101FE0007B62BB693B6207E03A6A531C3B627B6AD7
:101FF000591C796212781A707B695A1E7A61002B1B
:10200000F2D1FB6818462C37BD465DF8047B70475B
:1020100080B487B000AFF860B9607A60FB687B611C
:10202000BB683B613A697B699A4226D23A697B6810
:1020300013447A699A4220D27A697B6813447B619F
:102040003A697B6813443B6109E03B69013B3B61B2
:102050007B69013B7B613B691A787B691A707B68FD
:102060005A1E7A60002BF0D10CE03A69531C3B6198
:102070007B69591C796112781A707B685A1E7A60E4
:10208000002BF2D1FB6818461C37BD465DF8047B77
:10209000704780B487B000AFF860B9607A607B6841
:1020A000002B21D0FB687B61BB683B613A69531C04
:1020B0003B617B69591C796112781A701B78002B7F
:1020C0000CD104E07B695A1C7A6100221A707B688B
:1020D000013B7B607B68002BF4D105E07B68013B12
:1020E0007B607B68002BE1D1FB6818461C37BD463E
:1020F0005DF8047B704790B484B000AFF860B960BD
:102100007A60002413E0FB681A78BB68591CB96038
:102110001B78D31ADBB25CB2002C0BD1FB685A1CC3
:10212000FA601B78002B05D07B68013B7B607B68E5
:10213000002BE8D1234618461037BD4690BC7047A7
:1021400080B485B000AF78607B68FB6002E0FB681C
:102150000133FB60FB681B78002BF8D1FA687B68C1
:10216000D31A18461437BD465DF8047B7047FFFF4D
:1021700080B582B002AF0B4800F022FC0A4800F0A4
:102180001FFC0A4B01930A4B0093002301220421F8
:10219000084800F015FC084800F012FC00BFBD46DE
:1021A00080BD00BFD08C0100DC8C0100248D0100BB
:1021B000308D0100008D01003C8D010080B485B0A0
:1021C00000AF786039603B680A2B17D17B681B68C9
:1021D0001946134BA3FB0123DA0813469B00134453
:1021E0005B00CA1AFA607B681B681A460C4BA3FB9B
:1021F0000223DB081A467B681A600AE07B681B68CA
:1022000003F00F03FB607B681B681B091A467B68A1
:102210001A60FB6818461437BD465DF8047B7047AA
:10222000CDCCCCCC90B482B000AF786000240DE06F
:1022300023469B0023445B0018467B681B68591C9F
:102240007A6811601B780344A3F130047B681B6833
:102250001B78303B092BEBD9234618460837BD467F
:1022600090BC7047B0B58CB000AFF860B9607A60D0
:102270003B607B6CBB623C6CBB6C03F04003002B8F
:1022800001D06D4B00E06D4B7B62BB6C03F0100323
:10229000002B03D0BB6C23F00103BB64BB6C03F0C9
:1022A0000103002B01D0302300E0202387F82330E6
:1022B000002387F82F30BB6C03F00203002B1AD0E9
:1022C0007B68002B06DA2D2387F82F307B685B4272
:1022D0007B6010E0BB6C03F00403002B03D02B23C6
:1022E00087F82F3007E0BB6C03F00803002B02D007
:1022F000202387F82F3000257B68002B19D12B462F
:102300005D1C07F130021344302203F8202C13E047
:102310003B1D39681846FFF751FF03461A467B6A92
:102320001A442B465D1C127807F130010B4403F868
:10233000202C7B68002BEBD17B6C9D4200DD7D6403
:102340007B6CE41ABB6C03F01103002B15D197F8DA
:102350002F30002B0DD0002C0BDD013C09E0FA687A
:10236000BB689A4202D2FB6820221A70FB680133D4
:10237000FB6023465C1E002BF1DC97F82F30002B0E
:102380000BD0FA68BB689A4203D2FB6897F82F20FB
:102390001A70013CFB680133FB60BB6C03F0100357
:1023A000002B1AD10AE0FA68BB689A4203D2FB6894
:1023B00097F823201A70FB680133FB6023465C1EEC
:1023C000002BF0DC09E0FA68BB689A4202D2FB6895
:1023D00030221A70FB680133FB607B6C5A1E7A64F2
:1023E0009D42F0DB0DE0FA68BB689A4206D207F125
:1023F00030032B4413F8202CFB681A70FB68013360
:10240000FB602B465D1E002B0DDDBB6A002BEAD165
:1024100009E0FA68BB689A4202D2FB6820221A706F
:10242000FB680133FB6023465C1E002BF1DCFB687C
:1024300018463037BD46B0BDD88D0100EC8D010087
:1024400080B592B004AFF860B9607A603B60FB6819
:10245000BB62FA68BB6813447B627A6AFB689A4283
:1024600080F026824FF0FF337B627A6AFB68D31AD2
:10247000BB601DE27B681B78252B0BD0BA6A7B6A98
:102480009A4203D27B681A78BB6A1A70BB6A01331E
:10249000BB620AE20023BB777B6801337B607B6809
:1024A0001B782D2B04D1BB7F43F01003BB77F3E7E0
:1024B0007B681B782B2B04D1BB7F43F00403BB77D5
:1024C000EAE77B681B78202B04D1BB7F43F008032D
:1024D000BB77E1E77B681B78232B04D1BB7F43F0FC
:1024E0002003BB77D8E77B681B78302B04D1BB7FF8
:1024F00043F00103BB77CFE700BF4FF0FF33BB6171
:102500007B681B78303B092B05D83B1D1846FFF72D
:1025100089FEB86115E07B681B782A2B11D17B6896
:1025200001337B603B681A1D3A601B68BB61BB6965
:10253000002B06DABB695B42BB61BB7F43F0100333
:10254000BB774FF0FF337B617B681B782E2B1ED14E
:102550007B6801337B607B681B78303B092B05D897
:102560003B1D1846FFF75EFE78610BE07B681B7829
:102570002A2B07D17B6801337B603B681A1D3A60C8
:102580001B687B617B69002B01DA00237B610023E0
:102590007B777B681B78682B03D07B681B786C2B60
:1025A00005D17B681B787B777B6801337B600A23CE
:1025B000FB777B681B78252B00F00881252BC0F268
:1025C0001F81782B00F31C81582BC0F21981583BD6
:1025D000202B00F2158101A252F823F0E927000018
:1025E0000128000001280000012800000128000047
:1025F0000128000001280000012800000128000037
:10260000012800000128000061260000F7270000D3
:102610000128000001280000012800000128000016
:10262000F727000001280000012800000128000011
:102630000128000001280000E32700009527000082
:102640000128000001280000CF260000012800001A
:102650003D2800000128000001280000F1270000AB
:10266000BB7F03F01003002B10D109E0BA6A7B6A2C
:102670009A4202D2BB6A20221A70BB6A0133BB6243
:10268000BB69013BBB61BB69002BEFDC3B681A1DDA
:102690003A601B68FB74BA6A7B6A9A4202D2BB6AD0
:1026A000FA7C1A70BB6A0133BB6209E0BA6A7B6AC2
:1026B0009A4202D2BB6A20221A70BB6A0133BB6203
:1026C000BB69013BBB61BB69002BEFDCEDE03B6804
:1026D0001A1D3A601B683B623B6A002B01D1824B9A
:1026E0003B620023FB6202E0FB6A0133FB62FA6A91
:1026F000BB699A4205D0FB6A3A6A13441B78002BE7
:10270000F2D17B69002B05DDFA6A7B699A4201DD13
:102710007B69FB62BB7F03F01003002B10D109E043
:10272000BA6A7B6A9A4202D2BB6A20221A70BB6ADA
:102730000133BB62BB695A1EBA61FA6A9A42EFDB87
:1027400000233B6310E0BA6A7B6A9A4203D23B6A79
:102750001A78BB6A1A70BB6A0133BB623B6A0133E9
:102760003B623B6B01333B633A6BFB6A9A42EADBA9
:1027700009E0BA6A7B6A9A4202D2BB6A20221A70C6
:10278000BB6A0133BB62BB695A1EBA61FA6A9A42DC
:10279000EFDB8AE0BB69B3F1FF3F05D10823BB61E2
:1027A000BB7F43F00103BB773B681A1D3A601B688F
:1027B0001A46BB7F02937B690193BB690093102388
:1027C000796AB86AFFF74EFDB8626EE0BA6A7B6A52
:1027D0009A4202D2BB6A25221A70BB6A0133BB62DD
:1027E00063E00823FB772AE0BB7F43F04003BB771D
:1027F0001023FB7723E0BB7F43F00203BB771DE090
:10280000BA6A7B6A9A4202D2BB6A25221A70BB6AF4
:102810000133BB627B681B78002B0BD0BA6A7B6AE2
:102820009A4203D27B681A78BB6A1A70BB6A01337A
:10283000BB623AE07B68013B7B6036E000BF7B7F98
:102840006C2B09D13B681A1D3A601B687B63BB7F08
:1028500003F00203002B1AE07B7F682B0ED13B684C
:102860001A1D3A601B689BB27B63BB7F03F00203B7
:10287000002B0CD07B6B1BB27B6308E03B681A1DFE
:102880003A601B687B63BB7F03F00203002B7A6B0B
:10289000F97FBB7F02937B690193BB6900930B4671
:1028A000796AB86AFFF7DEFCB8627B6801337B6047
:1028B0007B681B78002B7FF4DDADBB68002B0BD051
:1028C000BA6A7B6A9A4203D2BB6A00221A7003E09A
:1028D0007B6A013B00221A70BA6AFB68D31A184659
:1028E0003837BD4680BD00BF688D010080B584B01B
:1028F00000AFF860B9607A607B68BA684FF0FF316A
:10290000F868FFF79DFD034618461037BD4680BDA9
:102910000EB480B585B000AF786007F12003BB60CE
:10292000BA68F9697868FFF7E1FFF860FB68184654
:102930001437BD46BDE8804003B0704780B400AF97
:10294000034B1B681846BD465DF8047B704700BF0B
:102950008C09002080B584B000AF7860124B1B68F2
:10296000FB607868FEF721FAB860BA68FB689A42A3
:1029700001D1002313E0BB68002B0FD00A4B1B686A
:10298000002B04D0084B1B681846FEF79FFA432122
:10299000B868FEF717FA044ABB681360FB6818466C
:1029A0001037BD4680BD00BF8C09002080B483B0C5
:1029B00000AF786000BF0C37BD465DF8047B704700
:1029C0000FB480B582B000AF07F114033B603B68E1
:1029D0003A697F211048FFF733FD03467B607B682F
:1029E0007F2B01D97F237B600C4B1B68002B03D10D
:1029F0000948FFF7DBFF06E0084B18687B68064ACA
:102A00000021FEF7F5FA7B6818460837BD46BDE899
:102A1000804004B0704700BFC40900208C0900202A
:102A200080B500AF012203490348FEF73DFF00BF18
:102A300080BD00BF708D01009809002080B500AFF7
:102A400001F00AFB0346002B06D04FF0FF3104488B
:102A5000FEF7A0FF034600E00023184680BD00BF3C
:102A60009809002080B582B000AF78607B68002BA9
:102A700005D04FF4AC620849084800F0F9F801F0BD
:102A8000EBFA0346002B02D00548FFF791F800BF90
:102A90000837BD4680BD00BF148E0100788D01004F
:102AA0009809002080B485B000AFF860B9607A6002
:102AB000FB68002B04D00D4B1B68DA69FB681A60B9
:102AC000BB68002B04D0094B1B681A6ABB681A60EC
:102AD0007B68002B04D0054B1B685A6A7B681A6020
:102AE00000BF1437BD465DF8047B7047BC09002069
:102AF00080B584B000AF786039607B68033323F021
:102B00000303FB603B6823F00303BB60BA68FB6808
:102B10009A4205D840F2B6520A490B4800F0A8F88C
:102B2000BA68FB68D31A1A467968084800F042F977
:102B30000346074A1360FFF773FF00BF1037BD4617
:102B400080BD00BF008E0100888D0100708D0100E6
:102B5000BC09002080B584B000AF7860FFF76EFF3D
:102B6000F8600C4B1B687968184600F0A5F9B8604E
:102B7000F868FFF777FF084B1B68002B04D0064B63
:102B80001B687968B8689847BB6818461037BD4617
:102B900080BD00BFBC0900209009002080B584B032
:102BA00000AF78603960FFF749FFF860074B1B689A
:102BB0003A687968184600F0B3FAB860F868FFF729
:102BC00051FFBB6818461037BD4680BDBC090020C8
:102BD00080B584B000AF786039607B683A6802FBEA
:102BE00003F31846FFF7B6FFF860FB68002B08D028
:102BF0007B683A6802FB03F31A460021F868FFF786
:102C000043F9FB6818461037BD4680BD80B584B0D7
:102C100000AF78600A4B1B68002B03D0084B1B6881
:102C200078689847FFF70AFFF860786800F062FB61
:102C3000F868FFF717FF00BF1037BD4680BD00BF23
:102C40009409002080B586B000AFF860B9607A6062
:102C5000FFF7F4FE78617A68B968F868FFF722FF39
:102C60007869FFF7FFFE00BF1837BD4680BDFFFF44
:102C700080B586B000AFF860B9607A600023FB755C
:102C80000C4B1B68002B0BD17B68BA68F9680A48AB
:102C9000FFF796FE00BFFB7DDBB2002BFBD005E00B
:102CA000044B1B687A68B968F868984700BF183702
:102CB000BD4680BDC0090020A08D010080B584B054
:102CC00000AF786039607B689B6A3A689A4204D2A8
:102CD000822235493548FFF7CBFF7B68DB6A3A68CB
:102CE0009A4204D3832230493148FFF7C1FF7B6801
:102CF0009A6A3B685B681344FB603A68FB689A42D7
:102D000024D0FB681B6803F00103002B1ED17B68F5
:102D1000DB6AFA689A4219D07B681B6BFA689A42A0
:102D200002D17B683A681A63FB6800221A60FB686C
:102D30005A683B685A607B689B6A3A68D11A7B681C
:102D40009A6AFB685B6813440A469A607B689A6AD1
:102D50003B689B681344BB60BA683B689A421FD0CB
:102D6000BB681B6803F00103002B19D17B681B6B48
:102D70003A689A4202D17B68BA681A633B680022BB
:102D80001A603B685A68BB685A607B689B6ABA687D
:102D9000D11A7B689A6A3B685B6813440A469A605A
:102DA00000BF1037BD4680BD40920100248E010057
:102DB000488E010080B58AB000AFF860B9607A60D3
:102DC000BB68033323F003037B627B6A38333B62C7
:102DD0003B6A033323F00303FB61BA687B68134447
:102DE00023F00303BB61BB69182B53D9BB69183BA4
:102DF0003A6A9A424ED8BA69FB69D31A183B7B618A
:102E000038220021786AFFF73FF87B6AFA680C21C4
:102E1000184600F067FB7B6A254A5A617B6AFA69AB
:102E20009A617B6A7A69DA617B6A7A695A63FA69BC
:102E30007B6A9A627B6A9B6A3B617B6A23F0010230
:102E40003B691A607B6A5B6B03F10C023B695A6059
:102E50003B6900229A607B6A9A6A3B695B681A4404
:102E60007B6ADA627A6A7B6ADB6A42F001021A6084
:102E70007B6A5A6B7B6ADB6A0C325A607B6A5A6BDC
:102E80007B6ADB6A0C329A607B6A9A6A7B6A1A6395
:102E90007B6A08E0B968BA687B6813441A4605483B
:102EA000FFF78EFD002318462837BD4680BD00BFC2
:102EB000788E0100808E010080B588B000AF786008
:102EC00039603B68002B01D1002315E17B68002BA2
:102ED00005D14FF490728A498A48FFF7C9FE7B6892
:102EE000184600F05BFC03460C2B05D040F2211283
:102EF00083498548FFF7BCFE7B68184600F030FC2C
:102F00000346002B05D14FF491727D497F48FFF7AE
:102F1000AFFE7B68BB613B68033323F003033B6078
:102F2000BB695B6B3A689A4201D90023E4E03B68D5
:102F30000B2B01D80C233B60BB691A6BBB699B6AE6
:102F4000D31AFB61CFE0BB699A6AFB6913447B61CA
:102F50007B691B6803F00103002B40F0BE807B6996
:102F60005A68FB69D31A0C3B3A689A4200F2B58062
:102F70007B695A68FB69D31AA3F10C023B681833CA
:102F80009A4239D3FA693B6813440C333B61BB69FD
:102F90009A6A3B691344FB60BB6923F00102FB683A
:102FA0001A607B695A68FB685A60FB68FA699A6024
:102FB0007B693A695A60FB685A68BB695B6B0C3382
:102FC0009A4206D0BB699A6AFB685B6813443A6907
:102FD0009A60BB691A6A3B68134403F10C02BB692F
:102FE0001A62BB695A6ABB691B6A9A421AD2BB69E8
:102FF0001A6ABB695A6215E0BB691A6A7B695B6829
:10300000B969896A7869411A5B1A1A44BB691A62FC
:10301000BB695A6ABB691B6A9A4203D2BB691A6AC6
:10302000BB695A62BB6943F001027B691A60BB69E4
:103030001B6B7A699A4228D107E0BB699A6ABB691F
:103040001B6B5B681A44BB691A63BB691B6B1B680B
:1030500003F00103002B05D0BB691A6BBB69DB6A67
:103060009A42EAD1BB691A6BBB69DB6A9A420CD0FF
:10307000BB691B6B1B6803F00103002B05D040F2FA
:1030800083121F492248FFF7F3FD7A693B68134416
:103090000C33BA69D26A934205D940F285121849B5
:1030A0001C48FFF7E5FD7B690C3303F00303002B9D
:1030B00005D04FF4C37212491748FFF7D9FD7B6959
:1030C00003F00303002B05D040F287120C4913488C
:1030D000FFF7CEFD7B690C330EE0BB699A6AFB6992
:1030E00013445B68FB61BB695A6B3B68D31AFA698E
:1030F0009A427FF628AF002318462037BD4680BD90
:103100004C920100BC8E0100CC8E0100088F0100A2
:10311000308F0100808F0100D08F01001C900100D2
:1031200080B58CB000AFF860B9607A60FB68002BA6
:1031300005D14FF4D57268496848FFF799FDFB68DF
:10314000184600F02BFB03460C2B05D040F2AB12C7
:1031500061496348FFF78CFDFB68184600F000FBEF
:103160000346002B05D14FF4D6725B495D48FFF74B
:103170007FFDFB68FB627B68033323F003037B6006
:10318000FB6A5B6B7A689A4201D900239FE07B68F7
:10319000002B04D1B86800F0ADF8002397E0BB68BD
:1031A000002B06D1FB6A79681846FFF785FE0346B7
:1031B0008DE0BB6803F00303002B05D040F2C11281
:1031C00045494948FFF754FDFB6A9B6ABA689A4231
:1031D00005D24FF4E17240494448FFF749FDFB6ACC
:1031E000DB6ABA689A4205D340F2C3123A494048B2
:1031F000FFF73EFDBB680C3BBB62FB6A9B6ABA6A89
:10320000D31A7B62BB6A5A687B6AD31A0C3B3B6257
:103210003A6A7B689A4201D1BB6858E07B681833F0
:103220003A6A9A423CD9FB6A1A6A79683B6ACB1AB5
:103230001A44FB6A1A627A6A7B6813440C33BB61D6
:10324000FB6A9A6ABB6913447B61FB6A23F0010243
:103250007B691A60BB6A5A687B695A607B697A6AC3
:103260009A60BB6ABA695A607B695A68FB6A5B6B91
:103270000C339A4206D0FB6A9A6A7B695B681344F6
:10328000BA699A60FB6A1B6B7A699A4202D2FB6A3E
:103290007A691A637969F86AFFF710FDBB6816E06E
:1032A000FB6A79681846FFF707FEF861FB69002B97
:1032B0000CD07A683B6A934228BF13461A46B96815
:1032C000F869FEF73CFEB86800F014F8FB69184690
:1032D0003037BD4680BD00BF5C920100BC8E01004E
:1032E000CC8E0100088F01004C9001007C90010001
:1032F000B490010080B584B000AF78607B68002B8B
:1033000000F083807B6803F00303002B05D04FF4AB
:10331000027240494048FFF7ABFC7B680C3BFB6006
:10332000FB681B6823F00103BB60BB68002B05D161
:103330004FF4057237493948FFF79AFCFB681B6860
:1033400003F00103002B05D140F215223149344826
:10335000FFF78EFCBB68184600F020FA03460C2BE2
:1033600005D040F216222B492E48FFF781FCBB689E
:10337000184600F0F5F90346002B05D140F217225C
:1033800024492948FFF774FCBB689B6A7A689A4213
:1033900004D3BB68DB6A7A689A4205D34FF406729D
:1033A0001C492248FFF764FCBB689A6AFB685B68AB
:1033B00013441B6823F001031A46BB68934205D0EF
:1033C00040F21A2213491A48FFF752FCBB6823F057
:1033D0000102FB681A60BB681B6BFA689A4202D252
:1033E000BB68FA681A63BB681A6ABB689B6AF968AB
:1033F000CB1A1946FB685B68CB1A1A44BB681A6281
:10340000F968B868FFF75AFC00E000BF1037BD4606
:1034100080BD00BF6C9201004C900100EC90010057
:1034200004910100149101005C910100949101004C
:103430000892010080B483B000AF786039607B6887
:103440001B683A685A607B681A683B681A607B6838
:103450003A681A603B687A685A6000BF0C37BD460C
:103460005DF8047B704780B483B000AF78607B6800
:103470001B687A6852685A607B685B687A68126871
:103480001A607B687A685A607B685A687B681A6041
:1034900000BF0C37BD465DF8047B704780B485B033
:1034A00000AF0346FB710023FB600FE00C4AFB6892
:1034B0001B0113441B78FA799A4204D1FB681B0163
:1034C000074A134406E0FB680133FB60FB68082BE6
:1034D000ECDD002318461437BD465DF8047B7047C9
:1034E0000C00002090B589B000AFF8600B467A6000
:1034F000FB720023FB61FB7A1846FFF7CFFFB86130
:10350000BB69002B05D14FF4AB7225492548FFF765
:10351000AFFB00F009FCBB695B68FB6112E0FB6973
:103520000C3B7B617B69002B09D07A69FB689A426E
:1035300005D14FF4B3721A491B48FFF799FBFB6999
:103540001B68FB61BB690433FA699A42E7D100F05A
:1035500001FCFB7A63F07F03DAB2FB681A72FB6846
:10356000082279681846FEF794FD104B1B68002B63
:1035700003D00E4B1B68F868984701F0F1FC044635
:10358000BB691A1DFB680C3319461046FFF752FF42
:10359000204601F0E9FC00BF2437BD4690BD00BFC6
:1035A000109301007C92010094920100440A0020D3
:1035B00090B583B000AF78607B68002B05D140F2F6
:1035C00093120F490F48FFF753FB0F4B1B68002B5B
:1035D00003D00D4B1B68786898477B6800221A72ED
:1035E00001F0BEFC04467B680C331846FFF73BFF36
:1035F000204601F0B9FC00BF0C37BD4690BD00BFAE
:1036000020930100A4920100480A002090B587B0E1
:1036100000AF03463960FB7101F0A2FC7861FEF750
:10362000E5FB0346002B09D029492A48FFF7C8F9D2
:1036300040F2B71226492848FFF71AFB786901F0D3
:1036400093FCFB791846FFF729FF38613B69002B93
:1036500005D140F2BB121E492048FFF709FB3B6928
:10366000DB681846FFF776FAF860FB68002B01D19B
:10367000002329E03B69DB681A460021F868FEF761
:1036800003FCFB68FA791A72FB6800225A72FB6825
:10369000082239681846FEF7FCFC114B1B68002B0A
:1036A00003D00F4B1B68F868984701F059FC04469B
:1036B0003B691A1DFB680C3319461046FFF7BAFE2A
:1036C000204601F051FCFB6818461C37BD4690BDF2
:1036D00034930100B8920100E09201007C92010055
:1036E000440A002090B583B000AF78607B68002B5F
:1036F00005D140F2F51216491648FFF7B9FA7B6872
:103700001B7A5BB2002B05DA4FF4FB7210491248AA
:10371000FFF7AEFA114B1B68002B03D00F4B1B6851
:10372000786898477B6800221A7201F019FC0446F9
:103730007B680C331846FFF796FE204601F014FC18
:103740007868FFF763FA00BF0C37BD4690BD00BF35
:1037500048930100A4920100E4920100480A00206D
:1037600080B582B000AF78607B68002B05D14FF444
:10377000067208490848FFF77BFA7B681B7A5BB240
:10378000002B01DA012300E0002318460837BD466C
:1037900080BD00BF5C930100A492010080B582B09F
:1037A00000AF78607B68002B05D140F22B220649E0
:1037B0000648FFF75DFA7B681B7A03F07F03DBB2F4
:1037C00018460837BD4680BD78930100A4920100D9
:1037D00080B586B000AF78600B46FB7000233B617C
:1037E00000237B610023FB60FB781846FFF756FE41
:1037F000F8607B68002B02D0FB68002B01D100230E
:1038000035E001F0ADFBB860FEF7F0FA0346002B9F
:1038100009D019491948FFF7D3F840F2492216494F
:103820001748FFF725FAB86801F09EFB00F07CFA14
:10383000FB685B687B6112E07B690C3B3B613B6929
:10384000082279681846FEF756FC0346002B03D180
:1038500000F080FA3B690AE07B691B687B61FB68CA
:1038600004337A699A42E7D100F074FA00231846CB
:103870001837BD4680BD00BF8C930100B89201008F
:10388000E092010080B483B000AF78607B687A6812
:103890005A607B685A687B681A6000BF0C37BD4667
:1038A0005DF8047B704780B483B000AF7860396006
:1038B0007B685B683A681A607B685A683B685A6044
:1038C0007B683A685A603B687A681A6000BF0C37B8
:1038D000BD465DF8047B704780B483B000AF78606C
:1038E0007B681B687A6852685A607B685B687A6894
:1038F00012681A607B687A685A607B685A687B68CD
:103900001A6000BF0C37BD465DF8047B704780B479
:1039100083B000AF78607B681B687A689A420CBFFE
:1039200001230023DBB218460C37BD465DF8047B4B
:103930007047FFFF80B584B000AF78607B68002BD4
:1039400004D15F221C491D48FFF792F97B689B6AEE
:103950001B78232B11D17B68DB691A467B689B6A35
:103960009A420AD97B68DB691A467B689B6A1946CA
:103970007B68DB6A0B449A420CD97B681946104875
:10398000FFF71EF801F0ECFA0346FB60FB68002B22
:10399000FCD10DE07B68DB691A467B689B6A2033AB
:1039A0009A4205D87B6819460648FFF709F8FFE7F1
:1039B00000BF1037BD4680BD049401009C930100F8
:1039C000B0930100CC930100B0B582B000AF786035
:1039D000094B1B68184601F0C9FD0346013B1C4614
:1039E000064B53F83430A3F114057B681C602B465A
:1039F00018460837BD46B0BD580B0020580A0020B5
:103A000098B500AF094B00221A80002406E0E300BD
:103A1000074A13441846FFF735FF01341F2CF6DD23
:103A2000044B00221A6000BF98BD00BF5C0B002051
:103A3000580A0020580B002090B583B000AF3B1D02
:103A40001846FFF7C1FF0446084B1C60204600F0F3
:103A500033F9032384F8343004F11C03184601F0D1
:103A6000CCFA00BF0C37BD4690BD00BF600B0020F4
:103A700080B586B000AF01F073FAF8605C4BB3F923
:103A80000030002B40F0AC805A4B1B68002B00F03C
:103A9000A78000233B613B1D1846FFF795FF786127
:103AA000554B1B6893F8343003F00703032B2CD1DC
:103AB000514B1B6893F835301A467B689A4203D203
:103AC0004D4B1B687B6115E04B4B1B6893F8353001
:103AD0001A467B689A420BD1474B1B6893F83430E7
:103AE00003F00803002B03D1434B1B687B6101E00B
:103AF00001233B61404B1B6893F834203E4B1B680D
:103B000022F00802D2B283F834203B4B1B687A695A
:103B10009A4250D07B68DAB2384B1A70364B1B6829
:103B2000BB60354A7B691360354B1B68002B04D0A2
:103B3000334B1B687969B86898473B69002B02D002
:103B4000B86800F063F8786900F0B6F87B6993F81C
:103B500034305BB223F007035BB243F003035BB284
:103B6000DAB27B6983F834207869FFF7E3FE254BEE
:103B70001B78DBB2002B14D1234B1B68002B03D026
:103B8000214B1B68B8689847BB681C331A467B6991
:103B90001C331946104601F0EAF9F86801F0E4F91F
:103BA00022E0BB681C331A467B691C331946104659
:103BB00001F0DDF914E0104B1B68184600F07CF8AA
:103BC0000D4B1B6893F834305BB223F007035BB2F4
:103BD00043F003035AB2084B1B68D2B283F8342077
:103BE000F86801F0C1F900BF1837BD4680BD00BFBD
:103BF0005C0B0020580B0020600B0020640B0020A1
:103C0000680B0020840900206C0B002090B583B065
:103C100000AF78607B68002B05D140F2D2222149A9
:103C20002148FFF725F801F09BF904461F4B1B685C
:103C30007A689A420ED17B6893F834305BB223F0F5
:103C400007035BB243F003035BB2DAB27B6883F82D
:103C5000342020E07B6893F834305BB223F0070314
:103C60005BB243F001035BB2DAB27B6883F83420C5
:103C70007B6893F83530DB000D4A1A447B681433B7
:103C800019461046FFF70FFE7B689A6B094B1B68BD
:103C90001343084A1360204601F066F900BF0C3751
:103CA000BD4690BD209401009C930100600B002054
:103CB000580A0020580B002090B583B000AF786000
:103CC0007B68002B05D140F2333213491348FEF7CD
:103CD000CFFF01F045F904467B6814331846FFF71F
:103CE000FBFD7B6893F83530DB000D4A1344184622
:103CF000FFF70DFE0346002B07D07B689B6BDA4372
:103D0000084B1B681340074A1360204601F02CF94A
:103D100000BF0C37BD4690BD3C9401009C93010050
:103D2000580A0020580B002098B500AF01F018F990
:103D30000446074BB3F900309BB201339BB21AB271
:103D4000034B1A80204601F00FF900BF98BD00BF59
:103D50005C0B002098B500AF01F002F90446104B4F
:103D6000B3F900309BB2013B9BB21AB20C4B1A80E4
:103D70000B4BB3F90030002B0CDC094B00221A80EE
:103D8000204601F0F1F8074B1B68002B05D0FFF728
:103D90006FFE02E0204601F0E7F800BF98BD00BFCB
:103DA0005C0B0020600B002080B400AF044BB3F923
:103DB00000309BB21846BD465DF8047B704700BFDB
:103DC0005C0B002080B483B000AF78607B687A68B9
:103DD0005A607B685A687B681A6000BF0C37BD4622
:103DE0005DF8047B704780B483B000AF78607B6877
:103DF0001B687A6852685A607B685B687A681268E8
:103E00001A607B687A685A607B685A687B681A60B7
:103E100000BF0C37BD465DF8047B704790B583B09A
:103E200000AF00F019F9786001F09AF8044678685C
:103E3000FFF742FF7B684C33184600F0E3FC7B68D9
:103E4000042283F834207868FDF7A8F9204601F0B1
:103E50008BF8FFF70DFE00BF0C37BD4690BDFFFF8E
:103E600090B585B000AF78607B68FB60FB68002B85
:103E700004D1872219491A48FEF7FAFEFB6893F825
:103E8000343003F00703022B04D08822134915486D
:103E9000FEF7EEFEF868FFF781FC0346012B04D025
:103EA00089220E491048FEF7E3FE01F059F8044656
:103EB000FB686FF001021A63FB6814331846FFF7C2
:103EC00092FFF868FFF7A2FE204601F04DF8FFF7D9
:103ED000CFFD00BF1437BD4690BD00BFF89501006F
:103EE000589401006C940100A894010080B586B03C
:103EF00002AFF860B9607A603B60FB681433184623
:103F0000FFF760FFFB687A681A62FB683A685A62DA
:103F1000FB68BA699A62FB68FA69DA62FB68986AB8
:103F2000FB68DB6A1A462321FDF7AEFFFB68186ABF
:103F3000FB68596AFB689A6AFB68DB6A043B1A44AF
:103F4000244B01F0ABF80246FB68DA6197F82030A9
:103F50001F2B04D9BE2220492048FEF789FEFB68AA
:103F600097F8202083F83520FB6800229A63FB68CD
:103F70000022DA63FB68002283F84020FB687A6A3B
:103F80005A64FB687A6A9A64FB6800221A63FB68C9
:103F9000002283F83420FB6800229A67FB68002225
:103FA000DA67FB6803F14C00F968002301930023F2
:103FB0000093FB680A4A00F0E7FB0A4B1B68002BE2
:103FC00003D0084B1B68F868984700231846103741
:103FD000BD4680BD1D3E000008960100EC94010026
:103FE000613E0000780B002080B588B004AFF86017
:103FF000B9607A603B60FB68002B05D140F231125A
:1040000012491348FEF734FEBB69002B05D14FF46B
:1040100099720E490F48FEF72BFEBA680121F86825
:10402000FFF760FA7B6A039397F820300293FB69ED
:104030000193BB6900933B687A68B968F868FFF739
:1040400055FF034618461037BD4680BD189601003F
:10405000589401001095010080B400AF034B1B6819
:104060001846BD465DF8047B704700BF600B00201A
:1040700080B582B000AF78607B68002B05D14FF42B
:10408000B2721C491C48FEF7F3FD7B6893F834308C
:1040900003F00703002B05D040F2651215491748BD
:1040A000FEF7E6FD7868FFF779FB0346012B05D0A4
:1040B0004FF4B3720F491248FEF7DAFD7B6893F8AC
:1040C00035301A46012393401A467B689A637B6811
:1040D000022283F83420786800F03EFAFFF7BCFF34
:1040E0000346002B01D0FFF7C3FC00231846083716
:1040F000BD4680BD28960100589401002895010016
:10410000A894010080B584B000AF78607B68002B74
:1041100005D140F28F1223492348FEF7A9FD7868A4
:10412000FFF73CFB0346012B05D04FF4C8721D4935
:104130001E48FEF79DFD7868FFF712FB0346002B33
:1041400005D140F2911217491948FEF791FD7B689D
:1041500093F8343003F00703042B01D100231CE053
:104160007B6893F8343003F00703002B02D07868A3
:10417000FFF7A2FD00F0F4FEF8607B684C331846B0
:1041800000F040FB7B68042283F834207868FDF758
:1041900005F8F86800F0E8FE002318461037BD4621
:1041A00080BD00BF3C96010058940100A894010016
:1041B0006095010080B58AB004AFF860B9607A609C
:1041C0003B60F9680120FFF721FA78617B69002BD9
:1041D00001D100231BE03868FEF7BCFC38613B6965
:1041E000002B04D17869FFF77DFA00230FE07B6A8A
:1041F000039397F8203002933B6801933B69009347
:104200007B68BA68F9687869FFF770FE7B691846C1
:104210001837BD4680BDFFFF80B584B000AF786021
:104220007B68002B05D14FF4FB7223492348FEF72E
:104230001FFD7868FFF7B2FA0346012B05D040F264
:10424000F7121D491E48FEF713FD7868FFF788FA3C
:104250000346002B05D04FF4FC7217491948FEF7AE
:1042600007FD7B6893F8343003F00703042B01D17A
:1042700000231CE07B6893F8343003F00703002B25
:1042800002D07868FFF718FD00F06AFEF8607B68DE
:104290004C33184600F0B6FA7B68042283F83420C9
:1042A0007868FCF77BFFF86800F05EFE0023184694
:1042B0001037BD4680BD00BF5096010058940100E4
:1042C000A89401009095010090B585B000AF78608A
:1042D000FFF7C2FEF860FB68002B05D140F23F22D9
:1042E0001B491C48FEF7C4FCF868FFF757FA034661
:1042F000012B05D04FF4107215491748FEF7B8FC92
:1043000000F02EFE0446FB6800221A63F86800F0F5
:10431000BFF8FB684C333A1D0021184600F016FC2C
:10432000FB684C33184600F0B5FA204600F01CFE3E
:10433000FFF79EFBFB681B6B13F1020F02D1FB68BA
:1043400000221A63FB681B6B18461437BD4690BDEC
:104350006496010058940100A894010080B582B0D1
:1043600000AF78607868FFF7AFFF0346184608375C
:10437000BD4680BD80B584B000AF78607868FCF73A
:1043800009FCF860F868FFF79FFF034618461037EE
:10439000BD4680BD90B587B000AFF860B9607A6067
:1043A000FB68002B05D140F2D52236493648FEF78E
:1043B0005FFCF868FFF7F2F90346012B05D040F2E5
:1043C000D62230493148FEF753FCBB68022B09D096
:1043D000BB68022B4FDCBB68002B34D0BB68012BC1
:1043E00036D048E000F0BCFD0446FB6893F834305A
:1043F00003F00703012B14D1F868FFF75DFC7B681D
:104400001A78FB6883F83520FB6893F835301A4634
:10441000012393401A46FB689A63F868FFF7F6FB9E
:104420000DE07B681A78FB6883F83520FB6893F809
:1044300035301A46012393401A46FB689A6320469A
:1044400000F092FD18E0F868FFF712FE034614E052
:10445000F868FFF785F90346012B04D1F868FFF7E8
:1044600051FE786103E0F868FFF7D6FE7861FFF748
:10447000FFFA7B6901E000BF002318461C37BD46E8
:1044800090BD00BF7496010058940100A8940100EB
:1044900090B583B000AF78607B68002B05D140F207
:1044A0004B3228492848FEF7E3FB7868FFF776F996
:1044B0000346012B05D04FF4537222492348FEF7DF
:1044C000D7FBFFF7C9FD02467B68934205D040F257
:1044D0004D321C491E48FEF7CBFB7B6893F8343005
:1044E00003F00704012C04D0032C02D04FF0FF335B
:1044F00024E000F035FD04467868FFF7DDFB7B68BB
:1045000093F834305BB223F007035BB243F002034D
:104510005BB2DAB27B6883F834207B684C33184690
:1045200000F0CAFA204600F01FFD0A4B1B68002B62
:1045300003D0084B1B6878689847002318460C374F
:10454000BD4690BD8896010058940100A8940100D2
:10455000DC950100700B002090B583B000AF78604F
:104560007B68002B05D140F279321D491D48FEF7CA
:104570007FFB7868FFF712F90346012B05D040F264
:104580007A3217491848FEF773FB7B6893F834308A
:1045900003F00703022B02D04FF0FF331BE000F0C3
:1045A000DFFC04467B6814331846FFF71CFC7B686D
:1045B0004C33184600F080FA7868FFF727FB204656
:1045C00000F0D2FC094B1B68002B03D0074B1B6883
:1045D00078689847002318460C37BD4690BD00BF49
:1045E0009C96010058940100A8940100740B0020CF
:1045F00080B483B000AF78607B687A685A607B686B
:104600005A687B681A6000BF0C37BD465DF8047BB2
:10461000704780B483B000AF786039607B681B68F6
:104620003A685A607B681A683B681A607B683A6827
:104630001A603B687A685A6000BF0C37BD465DF867
:10464000047B704780B483B000AF78607B681B68E0
:104650007A6852685A607B685B687A6812681A6088
:104660007B687A685A607B685A687B681A6000BF0A
:104670000C37BD465DF8047B704780B483B000AF53
:1046800078607B681B687A689A420CBF012300231C
:10469000DBB218460C37BD465DF8047B704780B529
:1046A00086B000AFF860B9607A603B60FB6897F84D
:1046B00020205A72FB685B7A23F00103DAB2FB68B0
:1046C0005A72FB68BA68DA61FB687A681A62FB683A
:1046D00000229A62FB683A685A6200237B610BE011
:1046E0007B690233DB00FA68134404331846FFF792
:1046F0007FFF7B6901337B617B69002BF0DD00BFAD
:1047000000BF1837BD4680BD90B585B000AF78605A
:10471000396000F025FC04467868FFF7AEFF0346D9
:10472000002B0CD17B681B68143BFB60FB689A6A0A
:104730003B681A60204600F017FC002304E0204686
:1047400000F012FC4FF0FF3318461437BD4690BD01
:1047500080B584B000AF78600023FB600BE0FB689D
:104760000233DB007A68134404331846FFF76AFF0C
:10477000FB680133FB60FB68002BF0DD00BF00BF6E
:104780001037BD4680BDFFFF80B586B002AFF86030
:10479000B9607A603B60FB68002B05D140F20F12D4
:1047A00014491548FEF764FA7B68002B05D14FF4D5
:1047B000887210491148FEF75BFABB696FF000423E
:1047C000934205D340F211120A490D48FEF750FA00
:1047D000FB68BA680A211846FEF784FE3B7F009307
:1047E000BB693A687968F868FFF759FF00BF10376E
:1047F000BD4680BDC0970100B0960100C49601007F
:10480000D896010090B583B000AF78607B68002B2C
:1048100005D14FF493721B491B48FEF729FA7B68B8
:104820001846FEF7BBFF03460A2B05D040F22712BD
:1048300014491648FEF71CFA7B681846FEF790FFED
:104840000346002B05D14FF494720E491048FEF731
:104850000FFA00F085FB04467868FFF779FF7B6864
:104860005B7A23F00103DAB27B685A72204600F0CB
:104870007BFB7B681846FEF79BFE002318460C372F
:10488000BD4690BDD0970100B0960100F0960100A2
:104890002C970100B0B588B000AF78607B68002B22
:1048A00005D14FF4CC727B497B48FEF7E1F97B6878
:1048B0001846FEF773FF03460A2B05D040F2991203
:1048C00074497648FEF7D4F9002400F049FB054608
:1048D0007868FFF73DFF7B685B7A23F00103DAB26B
:1048E0007B685A726E4B1B68002B04D06C4B1B68A4
:1048F0007A6810469847FCF703F902467B685B6AC2
:104900001A447B689A627B685B7A03F00403002B8D
:1049100002D0644BBB6101E0634BBB61BB69BB6010
:104920000023FB6155E0FB699B0007F12002134463
:1049300053F8183C1B683B61FB69DB0014335B4296
:104940003A691344FB60FB689A6A7B689B6A9A42E7
:1049500009D0FB689A6A7B689B6AD31A6FF00042A1
:1049600093421FD300E000BFFB699B0007F12002C8
:10497000134453F8183C1A68FB699B0007F12001A7
:104980000B4443F8182CFB699B0007F120021344E9
:1049900053F8182CFB69DB00B9690B445B689A4239
:1049A000C1D100E000BFFB69002B0FD0FB699B0069
:1049B00007F12002134453F8182CFB690133083225
:1049C0009B0007F120010B4443F8182CFB690133CD
:1049D000FB61FB69002BD6D0344B1B680133334A93
:1049E0001360324B1B687B61BA687B6814331946CD
:1049F0001046FFF70EFE0223FB611EE07B6903F009
:104A00000303002B1DD1FB69C3F101039B0007F1D8
:104A10002002134453F8180CFB69C3F1010302335D
:104A2000DB007A68134404331946FFF7F2FD7B6913
:104A30009B087B61FB690133FB61FB69012BDDD9BD
:104A400000E000BF7B685B7A43F00103DAB27B6869
:104A50005A727B685B7A03F00403002B0ED0144B70
:104A60001B78012B0AD1134B93F8343003F0070362
:104A7000022B03D10F48FFF76FFD0124284600F0F9
:104A800073FA002C01D0FEF7F3FF002318462037FD
:104A9000BD46B0BDE0970100B0960100F096010060
:104AA000500A0020840B00207C0B0020140E0020F4
:104AB0009C0000208C0B002090B583B000AF786084
:104AC0007B68002B05D14FF404721C491C48FEF78B
:104AD000CFF87B681846FEF761FE03460A2B05D027
:104AE00040F2112215491748FEF7C2F87B685B7A3D
:104AF00003F00103002B02D14FF0FF3319E0124BFA
:104B00001B68002B04D0104B1B687A68104698472E
:104B100000F026FA04467868FFF71AFE7B685B7A95
:104B200023F00103DAB27B685A72204600F01CFAC7
:104B3000002318460C37BD4690BD00BFF09701001A
:104B4000B0960100F0960100540A002090B585B09F
:104B500000AFF860B9607A60FB68002B05D14FF4B4
:104B60000D7234493448FEF783F8FB681846FEF7A7
:104B700015FE03460A2B05D040F235222D492F4859
:104B8000FEF776F800F0ECF90446BB68052B47D831
:104B900001A252F823F000BFBB4B0000B14B000054
:104BA000DD4B0000ED4B0000FD4B0000174C0000FA
:104BB000FB685A6A7B681A6033E07B681B686FF099
:104BC0000042934205D340F23F221A491C48FEF7A7
:104BD0004FF87B681A68FB685A6222E0FB685B7AD0
:104BE00023F00203DAB2FB685A721AE0FB685B7AC0
:104BF00043F00203DAB2FB685A7212E0FB685B7A98
:104C000003F00103002B03D07B6801221A6002E04D
:104C10007B6800221A60FB689A6A7B681A6000E071
:104C200000BF204600F0A0F9002318461437BD4607
:104C300090BD00BF00980100B0960100F096010001
:104C40009097010090B585B000AF3B461846FFF73E
:104C5000CFFCFBF755FFF86000F082F904465FE0F7
:104C6000374B1B68143BBB60BB689B6AFA68D31A5E
:104C70006FF0004293425AD2324B1B68002B03D094
:104C8000304B1B68B8689847B868FFF761FDBB6890
:104C90005B7A03F00203002B06D1BB685B7A23F03A
:104CA0000103DAB2BB685A72BB6803F114023B46D7
:104CB00011461846FFF7ADFCBB68DB69BA68126A9B
:104CC00010469847FBF71CFFF8601F4B1B68002B32
:104CD00003D01D4B1B68B86898473B461846FFF742
:104CE000CCFC0346002B00D01AE0BB6814331846F6
:104CF000FFF7A8FCBB685B7A03F00203002B0FD020
:104D0000BB685B7A03F00103002B09D0BB685B7AB8
:104D100023F00103DAB2BB685A72B868FFF7BAFD34
:104D20000748FFF7AAFC0346002B99D000E000BF1C
:104D3000204600F019F900BF1437BD4690BD00BFF2
:104D40007C0B00200C0E0020100E002090B585B0CA
:104D500000AF3B461846FFF74BFC00F001F9044654
:104D60006BE03D4B1B68143BFB60FBF7C9FEB86072
:104D7000FB689B6ABA68D31A6FF00042934263D211
:104D8000364B1B68002B03D0344B1B68F8689847E0
:104D9000F868FFF7DDFCFB685B7A03F00203002B89
:104DA00006D1FB685B7A23F00103DAB2FB685A7222
:104DB000FB6803F114023B4611461846FFF729FC35
:104DC000274B00221A70204600F0CEF8FB68DB6902
:104DD000FA68126A10469847224B1B68002B03D0D2
:104DE000204B1B68F868984700F0BAF804461C4B43
:104DF00001221A703B461846FFF73FFC0346002B82
:104E000000D01AE0FB6814331846FFF71BFCFB6860
:104E10005B7A03F00203002B0FD0FB685B7A03F090
:104E20000103002B09D0FB685B7A23F00103DAB29F
:104E3000FB685A72F868FFF72DFD0748FFF71DFC65
:104E40000346002B8DD000E000BF204600F08CF818
:104E500000BF1437BD4690BD840B00200C0E00200F
:104E60009C000020100E002080B584B000AF786058
:104E700007F1080319461248FFF746FC0346002BCA
:104E800008D0FFF7E9F803461846FFF701FBFEF7E5
:104E9000EFFD11E0FBF734FEF860BA68FB68D31A47
:104EA0006FF00042934207D2BA68FB68D31ABB6026
:104EB000BB681846FFF752FAFFF748FFD8E700BF74
:104EC000840B002080B582B000AF00237B6009E036
:104ED0007B68DB00074A13441846FFF789FB7B68B1
:104EE00001337B607B68002BF2D000BF00BF083726
:104EF000BD4680BD7C0B002080B586B004AF00238A
:104F00007B6009E07B68DB00104A13441846FFF71A
:104F10006FFB7B6801337B607B68002BF2D00A2338
:104F20000393042302934FF400730193084B0093FF
:104F30000023084A08490948FFF756F80748FFF7D1
:104F400097F800BF0837BD4680BD00BF840B002026
:104F50000C0C0020694E0000B89701008C0B00205B
:104F6000EFF3108072B6704780F310887047444AA0
:104F70001368012B04D04FF001031360414A106005
:104F8000414A116041484FF0805101607047EFF392
:104F9000108272B63A48016851B34FF000010160C7
:104FA0003848016891B1EFF309811EF0100F08BF76
:104FB00021ED108B21E9F00F4FF000041EF0100FCF
:104FC00008BF012441F8044D006801602E490968BA
:104FD000096808C9B1E8F00F002B18BFB1EC108BBD
:104FE00081F309884EF0100E002B18BF2EF0100E22
:104FF00082F310884EF0040E704723490860EFF3E7
:10500000148222F0040282F314881E494FF000003B
:1050100008601B494FF0010008601D481D49D0F889
:10502000002041EA0201016018484FF08051016000
:1050300019480068006800BF80F3088861B662B64E
:10504000704700BFEFF308801EF0040F01D0EFF3AC
:10505000098020E9F00F40F804ED40F804ED1EF05F
:10506000040F02D080F3098801E080F3088800B5BE
:1050700000F0BAF95DF804EB4EF0040E7047000042
:10508000200E0020180E00201C0E002004ED00E071
:1050900020ED00E00000FFFF08ED00E080B489B0E3
:1050A00000AFF860B9607A603B607B680433BB6135
:1050B000BB6923F00703BB61BB69443BBB61BB69B0
:1050C0007B610023FB6108E0FB699B007A69134464
:1050D000154A1A60FB690133FB61FB69102BF3D998
:1050E000BA687B695A627B6900229A627B690022F6
:1050F000DA627B6900221A637B6900225A633A688C
:105100007B699A63FA687B69DA637B694FF0807226
:105110001A647B6900221A60BB6918462437BD46B1
:105120005DF8047B704700BFEFBEADDE80B500AF19
:105130002548FDF745FC254B1B889BB219462448A2
:10514000FDF73EFC214B1B889BB203F00103002BB3
:1051500002D02048FDF734FC1C4B1B889BB203F0A7
:105160000203002B02D01C48FDF72AFC174B1B88BA
:105170009BB203F00403002B02D01848FDF720FC7B
:10518000124B1B889BB203F00803002B02D014487B
:10519000FDF716FC0D4B1B889BB203F48073002BAC
:1051A00002D01048FDF70CFC084B1B889BB203F49F
:1051B0000073002B02D00C48FDF702FC0B48FDF7F2
:1051C000FFFB00BF80BD00BF149801002AED00E086
:1051D000249801003C98010048980100549801006F
:1051E0005C98010064980100709801007C980100AF
:1051F00080B500AF2648FDF7E3FB264B1B78DBB2FA
:1052000019462548FDF7DCFB224B1B78DBB203F087
:105210000103002B02D02148FDF7D2FB1D4B1B7868
:10522000DBB203F00203002B02D01D48FDF7C8FBE0
:10523000184B1B78DBB203F00403002B02D0194893
:10524000FDF7BEFB134B1B78DBB203F00803002B0A
:1052500002D01548FDF7B4FB0E4B1B78DBB203F010
:105260001003002B02D01148FDF7AAFB094B1B7855
:10527000DBB25BB2002B06DA0D4B1B6819460D48FA
:10528000FDF79EFB02E00C48FDF79AFB00BF80BDD6
:105290008098010029ED00E08C980100A49801009D
:1052A000B0980100BC980100CC980100D89801008A
:1052B00038ED00E0E09801007C98010080B500AF77
:1052C0002148FDF77DFB214B1B78DBB219462048B6
:1052D000FDF776FB1D4B1B78DBB203F00103002BBF
:1052E00002D01C48FDF76CFB184B1B78DBB203F0B7
:1052F0000203002B02D01848FDF762FB134B1B780A
:10530000DBB203F00803002B02D01448FDF758FB72
:105310000E4B1B78DBB203F01003002B02D01048B9
:10532000FDF74EFB094B1B78DBB25BB2002B06DAB4
:105330000C4B1B6819460C48FDF742FB02E00B487A
:10534000FDF73EFB00BF80BDF098010028ED00E0B6
:10535000049901001C990100289901003499010069
:105360004099010034ED00E04C9901007C98010067
:1053700080B500AF164B1B6803F00203002B02D070
:105380001448FDF71DFB124B1B6803F08043002BF4
:1053900014D0114B1B78DBB2002B01D0FFF728FF94
:1053A0000E4B1B78DBB2002B01D0FFF787FF0C4BB5
:1053B0001B889BB2002B01D0FFF7B8FE044B1B6883
:1053C000002B02DA0748FDF7FBFA00BF80BD00BFE3
:1053D0002CED00E05C99010029ED00E028ED00E0F3
:1053E0002AED00E07499010080B586B000AF7860C6
:1053F0007B6828337B617B6804333B61474B1B68C8
:10540000002B07D0454B1B6878699847F860FB680C
:10541000002B7ED03B691B6C19464148FDF7D0FA42
:105420003B695B6A19463F48FDF7CAFA3B699B6ACC
:1054300019463D48FDF7C4FA3B69DB6A19463B480B
:10544000FDF7BEFA3B691B6B19463948FDF7B8FA00
:105450003B695B6819463748FDF7B2FA3B699B68C0
:1054600019463548FDF7ACFA3B69DB681946334805
:10547000FDF7A6FA3B691B6919463148FDF7A0FA0A
:105480003B695B6919462F48FDF79AFA3B699B69AE
:1054900019462D48FDF794FA3B69DB6919462B48FC
:1054A000FDF78EFA3B691B6A19462948FDF788FA11
:1054B0003B695B6B19462748FDF782FA3B699B6B9A
:1054C00019462548FDF77CFA3B69DB6B19462348F2
:1054D000FDF776FA7B681B6803F00403002B09D004
:1054E000FEF7BAFD034619461D48FDF769FA00F0BC
:1054F0007FF902E01B48FDF763FA7B681B6803F045
:105500001003002B02D11848FDF75AFAFFF730FFBD
:10551000FEE700BF1837BD4680BD00BF240E002047
:105520008499010094990100A4990100B4990100A3
:10553000C4990100D4990100E4990100F499010093
:10554000049A0100149A0100249A0100349A01007F
:10555000449A0100549A0100649A0100749A01006F
:10556000849A0100A49A0100C09A010080B483B01B
:1055700000AF78607B6893FAA3F3B3FA83F37A6899
:10558000002A01D14FF0FF33013318460C37BD46D6
:105590005DF8047B704780B584B000AF78603960F7
:1055A0003868FDF7D7FAF860FB68002B02D17B68FA
:1055B0000C221A60FB6818461037BD4680BD80B5C6
:1055C00086B000AFF860B9607A607968B868FDF7B6
:1055D000E5FA78617B69002B02D1FB680C221A6026
:1055E0007B6918461837BD4680BD80B586B000AFD0
:1055F000F860B9607A607968B868FDF7E9FA7861AF
:105600007B69002B02D1FB680C221A607B6918466B
:105610001837BD4680BD80B582B000AF7860396074
:105620003868FDF7F3FA00BF0837BD4680BD80B586
:1056300000AFFCF70FFC0346184680BD80B483B072
:1056400000AF78607B681B687A689A420CBF0123C0
:105650000023DBB218460C37BD465DF8047B70476B
:1056600080B485B000AF78600023FB607B68BB60CE
:1056700005E0BB681B68BB60FB680133FB60BB686F
:105680001B687A689A42F4D1FB6818461437BD4605
:105690005DF8047B7047FFFF80B500AF0248FDF75F
:1056A0008FF90023184680BDE49A010080B500AF51
:1056B000FCF75EFD0023184680BDFFFF80B582B079
:1056C00000AF786002E00648FDF77AF97B685A1E61
:1056D0007A60002BF7D100BF00BF0837BD4680BD00
:1056E000EC9A010080B586B000AFF8607A603B604C
:1056F0000B46FB72FB7A1846FDF7D0FE78617B699A
:1057000004333B61FB683A691A60FB68FA7A1A72E3
:10571000FB687A685A60FB683A68DA60FB680022C6
:105720001A6100BF1837BD4680BD80B58AB000AF92
:105730007860396000237B623B6800221A613B6815
:10574000DB68002B03D03B681B7A002B01D10023C0
:105750004AE03B681B687B617B68002B04D17B6956
:105760003B6201237B6201E07B683B62FFF7F8FB51
:1057700003463B617B6A002B10D13B6A0C3BFB600C
:10578000FB681B7A23F080033A68127A934205D0B3
:105790003B691846FFF7E8FB002325E00023BB61C7
:1057A0003B685B68FB613B6A1B683B623A6A7B69EA
:1057B0009A4202D100233B620EE0BB690133BB6118
:1057C000FB691A1DFA613A6A1A603B68DB68BA69BC
:1057D0009A4200D0E7E700BF3B691846FFF7C4FBD9
:1057E0003B68BA691A613B6A18462837BD4680BDD6
:1057F00090B5B9B002AF0023C7F8D430744BC7F8E6
:10580000C83007F1800207F1A00008230121FFF74B
:1058100069FF0823C7F8C430D7F8C820D7F8C410E8
:105820006C48FDF7CDF8D7F8C400FFF747FF6A488A
:10583000FDF7C6F807F1A0031946D7F8D400FFF723
:1058400074FFC7F8D4000023C7F8D030AFE0D7F812
:10585000D0309B0007F1D802134453F8583C0C3B5E
:10586000C7F8C030FFF77CFB0346C7F8BC30D7F859
:10587000C0301B7A23F0800397F8A820934205D00C
:10588000D7F8BC301846FFF76FFB8BE03B46802211
:10589000D7F8C0101846FCF752FBD7F8BC301846B2
:1058A000FFF762FBD7F8C030C7F8B830D7F8B82098
:1058B000D7F8B83093F83530009313460822D7F85C
:1058C000C4104648FDF77CF8D7F8B83093F8343068
:1058D00003F0070387F8B73097F8B730012B03D1EF
:1058E0003F48FDF76DF81EE097F8B730022B03D163
:1058F0003C48FDF765F816E097F8B730002B03D168
:105900003948FDF75DF80EE097F8B730042B03D166
:105910003648FDF755F806E097F8B730032B02D16B
:105920003348FDF74DF8D7F8B8309B6AC7F8CC304C
:1059300004E0D7F8CC300133C7F8CC30D7F8CC30FE
:105940001B78232BF5D0D7F8B830DA6AD7F8B830FF
:105950009B6A1946D7F8B830DB69CB1AD118D7F84B
:10596000B830D86AD7F8B830DA6AD7F8B8309B6A56
:105970001C46D7F8CC30E31A1344642203FB02F22E
:10598000D7F8B830DB6AB2FBF3F4D7F8B8309B6CC9
:10599000D7F8B820126B01920093234602461548AF
:1059A000FDF70EF8D7F8D0300133C7F8D030D7F86C
:1059B000B030D7F8D0209A42FFF649AFD7F8D430AC
:1059C000002B7FF437AF00231846DC37BD4690BD6F
:1059D000F09A0100F89A01003C9B01007C9B0100B9
:1059E000889B0100949B0100A09B0100AC9B0100DF
:1059F000B89B0100C49B010080B584B000AF786003
:105A00007B681B68FB6013E0FB68143BBB60BB68F2
:105A10001A4608210B48FCF7D3FFFB681B687A681D
:105A20009A4202D00848FCF7CBFFFB681B68FB607A
:105A3000FA687B689A42E7D100BF00BF1037BD46C5
:105A400080BD00BFEC9B0100F49B0100B0B596B097
:105A500002AF0023FB64424B7B643A4607F120000F
:105A600008230221FFF73EFE08233B647A6C396C61
:105A70003C48FCF7A5FF386CFFF720FE3A48FCF7DE
:105A80009FFF07F120031946F86CFFF74EFEF864FC
:105A90000023BB6457E0BB6C9B0007F1500213442A
:105AA00053F8503C0C3BFB63FFF75AFA0346BB63C9
:105AB000FB6B1B7A23F0800397F82820934204D0D5
:105AC000BB6B1846FFF750FA3AE0BB6B1846FFF77E
:105AD0004BFAFB6B7B637B6B14331846FFF7AEFD11
